{
  "contractName": "Baseball",
  "abi": [
    {
      "inputs": [
        {
          "internalType": "address",
          "name": "tokenAddress",
          "type": "address"
        }
      ],
      "stateMutability": "nonpayable",
      "type": "constructor"
    },
    {
      "inputs": [],
      "name": "GAME_COUNT",
      "outputs": [
        {
          "internalType": "uint256",
          "name": "",
          "type": "uint256"
        }
      ],
      "stateMutability": "view",
      "type": "function"
    },
    {
      "inputs": [],
      "name": "gameState",
      "outputs": [
        {
          "internalType": "enum Baseball.GameState",
          "name": "",
          "type": "uint8"
        }
      ],
      "stateMutability": "view",
      "type": "function"
    },
    {
      "inputs": [],
      "name": "owner",
      "outputs": [
        {
          "internalType": "address",
          "name": "",
          "type": "address"
        }
      ],
      "stateMutability": "view",
      "type": "function"
    },
    {
      "inputs": [],
      "name": "progress",
      "outputs": [
        {
          "internalType": "uint256",
          "name": "",
          "type": "uint256"
        }
      ],
      "stateMutability": "view",
      "type": "function"
    },
    {
      "inputs": [],
      "name": "random",
      "outputs": [
        {
          "internalType": "uint256",
          "name": "",
          "type": "uint256"
        }
      ],
      "stateMutability": "view",
      "type": "function"
    },
    {
      "inputs": [],
      "name": "reward",
      "outputs": [
        {
          "internalType": "uint256",
          "name": "",
          "type": "uint256"
        }
      ],
      "stateMutability": "view",
      "type": "function"
    },
    {
      "inputs": [],
      "name": "ticket",
      "outputs": [
        {
          "internalType": "uint256",
          "name": "",
          "type": "uint256"
        }
      ],
      "stateMutability": "view",
      "type": "function"
    },
    {
      "inputs": [],
      "name": "token",
      "outputs": [
        {
          "internalType": "contract IERC20",
          "name": "",
          "type": "address"
        }
      ],
      "stateMutability": "view",
      "type": "function"
    },
    {
      "inputs": [
        {
          "internalType": "uint256",
          "name": "_value",
          "type": "uint256"
        }
      ],
      "name": "gameStart",
      "outputs": [],
      "stateMutability": "payable",
      "type": "function"
    },
    {
      "inputs": [],
      "name": "withdrawToOwner",
      "outputs": [],
      "stateMutability": "nonpayable",
      "type": "function"
    },
    {
      "inputs": [],
      "name": "getReward",
      "outputs": [
        {
          "internalType": "uint256",
          "name": "",
          "type": "uint256"
        }
      ],
      "stateMutability": "view",
      "type": "function"
    },
    {
      "inputs": [],
      "name": "getProgress",
      "outputs": [
        {
          "internalType": "uint256",
          "name": "",
          "type": "uint256"
        }
      ],
      "stateMutability": "view",
      "type": "function"
    },
    {
      "inputs": [],
      "name": "getPlaying",
      "outputs": [
        {
          "internalType": "uint256",
          "name": "",
          "type": "uint256"
        }
      ],
      "stateMutability": "view",
      "type": "function"
    },
    {
      "inputs": [],
      "name": "getRandom",
      "outputs": [
        {
          "internalType": "uint256",
          "name": "",
          "type": "uint256"
        }
      ],
      "stateMutability": "view",
      "type": "function"
    }
  ],
  "bytecode": "0x608060405268056bc75e2d631000006002553480156200001d575f80fd5b50604051620012f2380380620012f28339818101604052810190620000439190620001ac565b335f806101000a81548173ffffffffffffffffffffffffffffffffffffffff021916908373ffffffffffffffffffffffffffffffffffffffff1602179055505f60065f6101000a81548160ff02191690836001811115620000a957620000a8620001dc565b5b02179055508060015f6101000a81548173ffffffffffffffffffffffffffffffffffffffff021916908373ffffffffffffffffffffffffffffffffffffffff16021790555060646103844244436040516020016200010a9392919062000236565b604051602081830303815290604052805190602001205f1c6200012e9190620002a5565b6200013a919062000309565b6005819055505062000343565b5f80fd5b5f73ffffffffffffffffffffffffffffffffffffffff82169050919050565b5f62000176826200014b565b9050919050565b62000188816200016a565b811462000193575f80fd5b50565b5f81519050620001a6816200017d565b92915050565b5f60208284031215620001c457620001c362000147565b5b5f620001d38482850162000196565b91505092915050565b7f4e487b71000000000000000000000000000000000000000000000000000000005f52602160045260245ffd5b5f819050919050565b5f819050919050565b620002306200022a8262000209565b62000212565b82525050565b5f6200024382866200021b565b6020820191506200025582856200021b565b6020820191506200026782846200021b565b602082019150819050949350505050565b7f4e487b71000000000000000000000000000000000000000000000000000000005f52601260045260245ffd5b5f620002b18262000209565b9150620002be8362000209565b925082620002d157620002d062000278565b5b828206905092915050565b7f4e487b71000000000000000000000000000000000000000000000000000000005f52601160045260245ffd5b5f620003158262000209565b9150620003228362000209565b92508282019050808211156200033d576200033c620002dc565b5b92915050565b610fa180620003515f395ff3fe6080604052600436106100dc575f3560e01c80638da5cb5b1161007e578063b8a5368a11610058578063b8a5368a14610270578063c38599e01461028c578063d1f9c24d146102b6578063fc0c546a146102e0576100dc565b80638da5cb5b146101f2578063939c44561461021c578063aacc5a1714610246576100dc565b8063577bd336116100ba578063577bd3361461014a5780635ec01e4d146101745780636cc25db71461019e578063810ab154146101c8576100dc565b8063228cb733146100e05780633cb40e161461010a5780633d18b91214610120575b5f80fd5b3480156100eb575f80fd5b506100f461030a565b60405161010191906109df565b60405180910390f35b348015610115575f80fd5b5061011e610310565b005b34801561012b575f80fd5b5061013461052a565b60405161014191906109df565b60405180910390f35b348015610155575f80fd5b5061015e610533565b60405161016b91906109df565b60405180910390f35b34801561017f575f80fd5b50610188610539565b60405161019591906109df565b60405180910390f35b3480156101a9575f80fd5b506101b261053f565b6040516101bf91906109df565b60405180910390f35b3480156101d3575f80fd5b506101dc610545565b6040516101e991906109df565b60405180910390f35b3480156101fd575f80fd5b50610206610590565b6040516102139190610a37565b60405180910390f35b348015610227575f80fd5b506102306105b3565b60405161023d91906109df565b60405180910390f35b348015610251575f80fd5b5061025a6105bc565b60405161026791906109df565b60405180910390f35b61028a60048036038101906102859190610a7e565b610653565b005b348015610297575f80fd5b506102a061098b565b6040516102ad91906109df565b60405180910390f35b3480156102c1575f80fd5b506102ca610990565b6040516102d79190610b1c565b60405180910390f35b3480156102eb575f80fd5b506102f46109a2565b6040516103019190610b90565b60405180910390f35b60045481565b5f8054906101000a900473ffffffffffffffffffffffffffffffffffffffff1673ffffffffffffffffffffffffffffffffffffffff163373ffffffffffffffffffffffffffffffffffffffff161461039d576040517f08c379a000000000000000000000000000000000000000000000000000000000815260040161039490610c03565b60405180910390fd5b5f60018111156103b0576103af610aa9565b5b60065f9054906101000a900460ff1660018111156103d1576103d0610aa9565b5b14806103e05750600a60035410155b61041f576040517f08c379a000000000000000000000000000000000000000000000000000000000815260040161041690610c6b565b60405180910390fd5b5f60045411610463576040517f08c379a000000000000000000000000000000000000000000000000000000000815260040161045a90610cd3565b60405180910390fd5b60015f9054906101000a900473ffffffffffffffffffffffffffffffffffffffff1673ffffffffffffffffffffffffffffffffffffffff1663a9059cbb5f8054906101000a900473ffffffffffffffffffffffffffffffffffffffff166004546040518363ffffffff1660e01b81526004016104e0929190610cf1565b6020604051808303815f875af11580156104fc573d5f803e3d5ffd5b505050506040513d601f19601f820116820180604052508101906105209190610d4d565b505f600481905550565b5f600454905090565b60035481565b60055481565b60025481565b5f80600181111561055957610558610aa9565b5b60065f9054906101000a900460ff16600181111561057a57610579610aa9565b5b14610586576001610588565b5f5b60ff16905090565b5f8054906101000a900473ffffffffffffffffffffffffffffffffffffffff1681565b5f600354905090565b5f805f9054906101000a900473ffffffffffffffffffffffffffffffffffffffff1673ffffffffffffffffffffffffffffffffffffffff163373ffffffffffffffffffffffffffffffffffffffff161461064b576040517f08c379a000000000000000000000000000000000000000000000000000000000815260040161064290610c03565b60405180910390fd5b600554905090565b600a60035410610698576040517f08c379a000000000000000000000000000000000000000000000000000000000815260040161068f90610dc2565b60405180910390fd5b5f60018111156106ab576106aa610aa9565b5b60065f9054906101000a900460ff1660018111156106cc576106cb610aa9565b5b1461070c576040517f08c379a000000000000000000000000000000000000000000000000000000000815260040161070390610dc2565b60405180910390fd5b6064811015801561071e57506103e881105b61075d576040517f08c379a000000000000000000000000000000000000000000000000000000000815260040161075490610e2a565b60405180910390fd5b5f60015f9054906101000a900473ffffffffffffffffffffffffffffffffffffffff1673ffffffffffffffffffffffffffffffffffffffff166323b872dd33306002546040518463ffffffff1660e01b81526004016107be93929190610e48565b6020604051808303815f875af11580156107da573d5f803e3d5ffd5b505050506040513d601f19601f820116820180604052508101906107fe9190610d4d565b905080610840576040517f08c379a000000000000000000000000000000000000000000000000000000000815260040161083790610eed565b60405180910390fd5b600160035f8282546108529190610f38565b9250508190555060025460045f82825461086c9190610f38565b9250508190555060055482036109515760015f9054906101000a900473ffffffffffffffffffffffffffffffffffffffff1673ffffffffffffffffffffffffffffffffffffffff1663a9059cbb336004546040518363ffffffff1660e01b81526004016108da929190610cf1565b6020604051808303815f875af11580156108f6573d5f803e3d5ffd5b505050506040513d601f19601f8201168201806040525081019061091a9190610d4d565b505f600481905550600160065f6101000a81548160ff0219169083600181111561094757610946610aa9565b5b0217905550610987565b600a6003540361098657600160065f6101000a81548160ff021916908360018111156109805761097f610aa9565b5b02179055505b5b5050565b600a81565b60065f9054906101000a900460ff1681565b60015f9054906101000a900473ffffffffffffffffffffffffffffffffffffffff1681565b5f819050919050565b6109d9816109c7565b82525050565b5f6020820190506109f25f8301846109d0565b92915050565b5f73ffffffffffffffffffffffffffffffffffffffff82169050919050565b5f610a21826109f8565b9050919050565b610a3181610a17565b82525050565b5f602082019050610a4a5f830184610a28565b92915050565b5f80fd5b610a5d816109c7565b8114610a67575f80fd5b50565b5f81359050610a7881610a54565b92915050565b5f60208284031215610a9357610a92610a50565b5b5f610aa084828501610a6a565b91505092915050565b7f4e487b71000000000000000000000000000000000000000000000000000000005f52602160045260245ffd5b60028110610ae757610ae6610aa9565b5b50565b5f819050610af782610ad6565b919050565b5f610b0682610aea565b9050919050565b610b1681610afc565b82525050565b5f602082019050610b2f5f830184610b0d565b92915050565b5f819050919050565b5f610b58610b53610b4e846109f8565b610b35565b6109f8565b9050919050565b5f610b6982610b3e565b9050919050565b5f610b7a82610b5f565b9050919050565b610b8a81610b70565b82525050565b5f602082019050610ba35f830184610b81565b92915050565b5f82825260208201905092915050565b7f4f6e6c79206f776e6572000000000000000000000000000000000000000000005f82015250565b5f610bed600a83610ba9565b9150610bf882610bb9565b602082019050919050565b5f6020820190508181035f830152610c1a81610be1565b9050919050565b7f47616d65206e6f74204f7665722d2100000000000000000000000000000000005f82015250565b5f610c55600f83610ba9565b9150610c6082610c21565b602082019050919050565b5f6020820190508181035f830152610c8281610c49565b9050919050565b7f4e6f7420726577617264000000000000000000000000000000000000000000005f82015250565b5f610cbd600a83610ba9565b9150610cc882610c89565b602082019050919050565b5f6020820190508181035f830152610cea81610cb1565b9050919050565b5f604082019050610d045f830185610a28565b610d1160208301846109d0565b9392505050565b5f8115159050919050565b610d2c81610d18565b8114610d36575f80fd5b50565b5f81519050610d4781610d23565b92915050565b5f60208284031215610d6257610d61610a50565b5b5f610d6f84828501610d39565b91505092915050565b7f47616d654f7665720000000000000000000000000000000000000000000000005f82015250565b5f610dac600883610ba9565b9150610db782610d78565b602082019050919050565b5f6020820190508181035f830152610dd981610da0565b9050919050565b7f5f76616c7565206572726f722028313030207e203939392900000000000000005f82015250565b5f610e14601883610ba9565b9150610e1f82610de0565b602082019050919050565b5f6020820190508181035f830152610e4181610e08565b9050919050565b5f606082019050610e5b5f830186610a28565b610e686020830185610a28565b610e7560408301846109d0565b949350505050565b7f5469636b6574205061796d656e74206661696c65642e20417070726f766520665f8201527f6972737400000000000000000000000000000000000000000000000000000000602082015250565b5f610ed7602483610ba9565b9150610ee282610e7d565b604082019050919050565b5f6020820190508181035f830152610f0481610ecb565b9050919050565b7f4e487b71000000000000000000000000000000000000000000000000000000005f52601160045260245ffd5b5f610f42826109c7565b9150610f4d836109c7565b9250828201905080821115610f6557610f64610f0b565b5b9291505056fea264697066735822122087004d9becfe7abbe159b51901ff34049a8b77ab5feb05a2259f8231235c919764736f6c63430008150033",
  "immutableReferences": {},
  "source": "// SPDX-License-Identifier: MIT\npragma solidity ^0.8.20;\n\nimport \"@openzeppelin/contracts/token/ERC20/IERC20.sol\";\n\ncontract Baseball {\n    address public owner;\n    IERC20 public token;\n    uint256 public constant GAME_COUNT = 10;\n    uint256 public ticket = 100 * 10 ** 18; //100MTK\n    uint256 public progress;\n    uint256 public reward;\n    uint256 public random;\n\n    enum GameState { playing, gameOver }\n\n    GameState public gameState;\n\n    constructor(address tokenAddress) {\n        owner = msg.sender;\n        gameState = GameState.playing;\n        token = IERC20(tokenAddress);\n\n        random = \n            (uint256(\n                keccak256(\n                    abi.encodePacked(\n                        block.timestamp,\n                        block.prevrandao,\n                        block.number)\n                    )\n                ) % 900) +\n                100;\n    }\n\n    function gameStart(uint256 _value) public payable {\n        require(progress < GAME_COUNT, \"GameOver\");\n        require(gameState == GameState.playing, \"GameOver\");\n        require((_value >= 100) && (_value < 1000), \"_value error (100 ~ 999)\");\n\n        //   CA => MTK     \n        bool success = token.transferFrom(msg.sender, address(this), ticket);\n        require(success, \"Ticket Payment failed. Approve first\");\n\n        progress += 1; //    \n        reward += ticket;\n\n        //    \n        if (_value == random) {\n            token.transfer(msg.sender, reward);\n            reward = 0;\n            gameState = GameState.gameOver;\n        } else if (progress == GAME_COUNT) { // 10     \n            gameState = GameState.gameOver;\n        }\n    }\n\n    function withdrawToOwner () public {\n        require(msg.sender == owner, \"Only owner\");\n        require(gameState == GameState.playing || progress >= GAME_COUNT, \"Game not Over-!\");\n        require(reward > 0, \"Not reward\");\n\n        token.transfer(owner, reward);\n        reward = 0;\n    }\n\n    function getReward() public view returns (uint256) {\n        return reward;\n    }\n\n    function getProgress() public view returns (uint256) {\n        return progress;\n    }\n\n    function getPlaying() public view returns (uint256) {\n        return gameState == GameState.playing ? 0 : 1;\n    }\n\n    function getRandom() public view returns (uint256) {\n        require(msg.sender == owner, \"Only owner\");\n        return random;\n    }\n}",
  "sourcePath": "/home/whtkddk/Blockchain/250509/mytoken-ui/contracts/baseball.sol",
  "compiler": {
    "name": "solc",
    "version": "0.8.21+commit.d9974bed.Emscripten.clang"
  },
  "schemaVersion": "3.4.16",
  "updatedAt": "2025-05-09T02:35:35.956Z",
  "devdoc": {
    "kind": "dev",
    "methods": {},
    "version": 1
  },
  "userdoc": {
    "kind": "user",
    "methods": {},
    "version": 1
  }
}